{
  "_format": "hh-sol-artifact-1",
  "contractName": "CoolNFT",
  "sourceName": "contracts/CoolNFT.sol",
  "abi": [
    {
      "inputs": [],
      "stateMutability": "nonpayable",
      "type": "constructor"
    },
    {
      "inputs": [
        {
          "internalType": "address",
          "name": "sender",
          "type": "address"
        },
        {
          "internalType": "uint256",
          "name": "tokenId",
          "type": "uint256"
        },
        {
          "internalType": "address",
          "name": "owner",
          "type": "address"
        }
      ],
      "name": "ERC721IncorrectOwner",
      "type": "error"
    },
    {
      "inputs": [
        {
          "internalType": "address",
          "name": "operator",
          "type": "address"
        },
        {
          "internalType": "uint256",
          "name": "tokenId",
          "type": "uint256"
        }
      ],
      "name": "ERC721InsufficientApproval",
      "type": "error"
    },
    {
      "inputs": [
        {
          "internalType": "address",
          "name": "approver",
          "type": "address"
        }
      ],
      "name": "ERC721InvalidApprover",
      "type": "error"
    },
    {
      "inputs": [
        {
          "internalType": "address",
          "name": "operator",
          "type": "address"
        }
      ],
      "name": "ERC721InvalidOperator",
      "type": "error"
    },
    {
      "inputs": [
        {
          "internalType": "address",
          "name": "owner",
          "type": "address"
        }
      ],
      "name": "ERC721InvalidOwner",
      "type": "error"
    },
    {
      "inputs": [
        {
          "internalType": "address",
          "name": "receiver",
          "type": "address"
        }
      ],
      "name": "ERC721InvalidReceiver",
      "type": "error"
    },
    {
      "inputs": [
        {
          "internalType": "address",
          "name": "sender",
          "type": "address"
        }
      ],
      "name": "ERC721InvalidSender",
      "type": "error"
    },
    {
      "inputs": [
        {
          "internalType": "uint256",
          "name": "tokenId",
          "type": "uint256"
        }
      ],
      "name": "ERC721NonexistentToken",
      "type": "error"
    },
    {
      "anonymous": false,
      "inputs": [
        {
          "indexed": true,
          "internalType": "address",
          "name": "owner",
          "type": "address"
        },
        {
          "indexed": true,
          "internalType": "address",
          "name": "approved",
          "type": "address"
        },
        {
          "indexed": true,
          "internalType": "uint256",
          "name": "tokenId",
          "type": "uint256"
        }
      ],
      "name": "Approval",
      "type": "event"
    },
    {
      "anonymous": false,
      "inputs": [
        {
          "indexed": true,
          "internalType": "address",
          "name": "owner",
          "type": "address"
        },
        {
          "indexed": true,
          "internalType": "address",
          "name": "operator",
          "type": "address"
        },
        {
          "indexed": false,
          "internalType": "bool",
          "name": "approved",
          "type": "bool"
        }
      ],
      "name": "ApprovalForAll",
      "type": "event"
    },
    {
      "anonymous": false,
      "inputs": [
        {
          "indexed": false,
          "internalType": "uint256",
          "name": "_fromTokenId",
          "type": "uint256"
        },
        {
          "indexed": false,
          "internalType": "uint256",
          "name": "_toTokenId",
          "type": "uint256"
        }
      ],
      "name": "BatchMetadataUpdate",
      "type": "event"
    },
    {
      "anonymous": false,
      "inputs": [
        {
          "indexed": false,
          "internalType": "uint256",
          "name": "_tokenId",
          "type": "uint256"
        }
      ],
      "name": "MetadataUpdate",
      "type": "event"
    },
    {
      "anonymous": false,
      "inputs": [
        {
          "indexed": true,
          "internalType": "address",
          "name": "from",
          "type": "address"
        },
        {
          "indexed": true,
          "internalType": "address",
          "name": "to",
          "type": "address"
        },
        {
          "indexed": true,
          "internalType": "uint256",
          "name": "tokenId",
          "type": "uint256"
        }
      ],
      "name": "Transfer",
      "type": "event"
    },
    {
      "inputs": [
        {
          "internalType": "address",
          "name": "to",
          "type": "address"
        },
        {
          "internalType": "uint256",
          "name": "tokenId",
          "type": "uint256"
        }
      ],
      "name": "approve",
      "outputs": [],
      "stateMutability": "nonpayable",
      "type": "function"
    },
    {
      "inputs": [
        {
          "internalType": "address",
          "name": "owner",
          "type": "address"
        }
      ],
      "name": "balanceOf",
      "outputs": [
        {
          "internalType": "uint256",
          "name": "",
          "type": "uint256"
        }
      ],
      "stateMutability": "view",
      "type": "function"
    },
    {
      "inputs": [
        {
          "internalType": "uint256",
          "name": "tokenId",
          "type": "uint256"
        }
      ],
      "name": "getApproved",
      "outputs": [
        {
          "internalType": "address",
          "name": "",
          "type": "address"
        }
      ],
      "stateMutability": "view",
      "type": "function"
    },
    {
      "inputs": [
        {
          "internalType": "address",
          "name": "owner",
          "type": "address"
        },
        {
          "internalType": "address",
          "name": "operator",
          "type": "address"
        }
      ],
      "name": "isApprovedForAll",
      "outputs": [
        {
          "internalType": "bool",
          "name": "",
          "type": "bool"
        }
      ],
      "stateMutability": "view",
      "type": "function"
    },
    {
      "inputs": [],
      "name": "maxPerWallet",
      "outputs": [
        {
          "internalType": "uint256",
          "name": "",
          "type": "uint256"
        }
      ],
      "stateMutability": "view",
      "type": "function"
    },
    {
      "inputs": [],
      "name": "maxSupply",
      "outputs": [
        {
          "internalType": "uint256",
          "name": "",
          "type": "uint256"
        }
      ],
      "stateMutability": "view",
      "type": "function"
    },
    {
      "inputs": [],
      "name": "maxsupply",
      "outputs": [
        {
          "internalType": "uint256",
          "name": "",
          "type": "uint256"
        }
      ],
      "stateMutability": "view",
      "type": "function"
    },
    {
      "inputs": [],
      "name": "mintPrice",
      "outputs": [
        {
          "internalType": "uint256",
          "name": "",
          "type": "uint256"
        }
      ],
      "stateMutability": "view",
      "type": "function"
    },
    {
      "inputs": [],
      "name": "name",
      "outputs": [
        {
          "internalType": "string",
          "name": "",
          "type": "string"
        }
      ],
      "stateMutability": "view",
      "type": "function"
    },
    {
      "inputs": [
        {
          "internalType": "uint256",
          "name": "tokenId",
          "type": "uint256"
        }
      ],
      "name": "ownerOf",
      "outputs": [
        {
          "internalType": "address",
          "name": "",
          "type": "address"
        }
      ],
      "stateMutability": "view",
      "type": "function"
    },
    {
      "inputs": [
        {
          "internalType": "string",
          "name": "_uri",
          "type": "string"
        }
      ],
      "name": "safeMint",
      "outputs": [],
      "stateMutability": "payable",
      "type": "function"
    },
    {
      "inputs": [
        {
          "internalType": "address",
          "name": "from",
          "type": "address"
        },
        {
          "internalType": "address",
          "name": "to",
          "type": "address"
        },
        {
          "internalType": "uint256",
          "name": "tokenId",
          "type": "uint256"
        }
      ],
      "name": "safeTransferFrom",
      "outputs": [],
      "stateMutability": "nonpayable",
      "type": "function"
    },
    {
      "inputs": [
        {
          "internalType": "address",
          "name": "from",
          "type": "address"
        },
        {
          "internalType": "address",
          "name": "to",
          "type": "address"
        },
        {
          "internalType": "uint256",
          "name": "tokenId",
          "type": "uint256"
        },
        {
          "internalType": "bytes",
          "name": "data",
          "type": "bytes"
        }
      ],
      "name": "safeTransferFrom",
      "outputs": [],
      "stateMutability": "nonpayable",
      "type": "function"
    },
    {
      "inputs": [
        {
          "internalType": "address",
          "name": "operator",
          "type": "address"
        },
        {
          "internalType": "bool",
          "name": "approved",
          "type": "bool"
        }
      ],
      "name": "setApprovalForAll",
      "outputs": [],
      "stateMutability": "nonpayable",
      "type": "function"
    },
    {
      "inputs": [
        {
          "internalType": "bytes4",
          "name": "interfaceId",
          "type": "bytes4"
        }
      ],
      "name": "supportsInterface",
      "outputs": [
        {
          "internalType": "bool",
          "name": "",
          "type": "bool"
        }
      ],
      "stateMutability": "view",
      "type": "function"
    },
    {
      "inputs": [],
      "name": "symbol",
      "outputs": [
        {
          "internalType": "string",
          "name": "",
          "type": "string"
        }
      ],
      "stateMutability": "view",
      "type": "function"
    },
    {
      "inputs": [
        {
          "internalType": "uint256",
          "name": "tokenId",
          "type": "uint256"
        }
      ],
      "name": "tokenURI",
      "outputs": [
        {
          "internalType": "string",
          "name": "",
          "type": "string"
        }
      ],
      "stateMutability": "view",
      "type": "function"
    },
    {
      "inputs": [],
      "name": "totalSupplied",
      "outputs": [
        {
          "internalType": "uint256",
          "name": "",
          "type": "uint256"
        }
      ],
      "stateMutability": "view",
      "type": "function"
    },
    {
      "inputs": [],
      "name": "totalsupply",
      "outputs": [
        {
          "internalType": "uint256",
          "name": "",
          "type": "uint256"
        }
      ],
      "stateMutability": "view",
      "type": "function"
    },
    {
      "inputs": [
        {
          "internalType": "address",
          "name": "from",
          "type": "address"
        },
        {
          "internalType": "address",
          "name": "to",
          "type": "address"
        },
        {
          "internalType": "uint256",
          "name": "tokenId",
          "type": "uint256"
        }
      ],
      "name": "transferFrom",
      "outputs": [],
      "stateMutability": "nonpayable",
      "type": "function"
    }
  ],
  "bytecode": "0x6080604052662386f26fc10000600755600a60085560026009553480156200002657600080fd5b506040518060400160405280600781526020017f436f6f6c4e4654000000000000000000000000000000000000000000000000008152506040518060400160405280600381526020017f434e4b00000000000000000000000000000000000000000000000000000000008152508160009081620000a4919062000339565b508060019081620000b6919062000339565b50505062000420565b600081519050919050565b7f4e487b7100000000000000000000000000000000000000000000000000000000600052604160045260246000fd5b7f4e487b7100000000000000000000000000000000000000000000000000000000600052602260045260246000fd5b600060028204905060018216806200014157607f821691505b602082108103620001575762000156620000f9565b5b50919050565b60008190508160005260206000209050919050565b60006020601f8301049050919050565b600082821b905092915050565b600060088302620001c17fffffffffffffffffffffffffffffffffffffffffffffffffffffffffffffffff8262000182565b620001cd868362000182565b95508019841693508086168417925050509392505050565b6000819050919050565b6000819050919050565b60006200021a620002146200020e84620001e5565b620001ef565b620001e5565b9050919050565b6000819050919050565b6200023683620001f9565b6200024e620002458262000221565b8484546200018f565b825550505050565b600090565b6200026562000256565b620002728184846200022b565b505050565b5b818110156200029a576200028e6000826200025b565b60018101905062000278565b5050565b601f821115620002e957620002b3816200015d565b620002be8462000172565b81016020851015620002ce578190505b620002e6620002dd8562000172565b83018262000277565b50505b505050565b600082821c905092915050565b60006200030e60001984600802620002ee565b1980831691505092915050565b6000620003298383620002fb565b9150826002028217905092915050565b6200034482620000bf565b67ffffffffffffffff81111562000360576200035f620000ca565b5b6200036c825462000128565b620003798282856200029e565b600060209050601f831160018114620003b157600084156200039c578287015190505b620003a885826200031b565b86555062000418565b601f198416620003c1866200015d565b60005b82811015620003eb57848901518255600182019150602085019450602081019050620003c4565b868310156200040b578489015162000407601f891682620002fb565b8355505b6001600288020188555050505b505050505050565b61290a80620004306000396000f3fe60806040526004361061011f5760003560e01c80636817c76c116100a0578063a22cb46511610064578063a22cb465146103dc578063b88d4fde14610405578063c87b56dd1461042e578063d5abeb011461046b578063e985e9c5146104965761011f565b80636817c76c14610302578063695850fb1461032d57806370a082311461034957806372dd529b1461038657806395d89b41146103b15761011f565b806342842e0e116100e757806342842e0e1461021b578063453c2310146102445780634b6406d11461026f578063630fd0ac1461029a5780636352211e146102c55761011f565b806301ffc9a71461012457806306fdde0314610161578063081812fc1461018c578063095ea7b3146101c957806323b872dd146101f2575b600080fd5b34801561013057600080fd5b5061014b60048036038101906101469190611bd7565b6104d3565b6040516101589190611c1f565b60405180910390f35b34801561016d57600080fd5b506101766104e5565b6040516101839190611cca565b60405180910390f35b34801561019857600080fd5b506101b360048036038101906101ae9190611d22565b610577565b6040516101c09190611d90565b60405180910390f35b3480156101d557600080fd5b506101f060048036038101906101eb9190611dd7565b610593565b005b3480156101fe57600080fd5b5061021960048036038101906102149190611e17565b6105a9565b005b34801561022757600080fd5b50610242600480360381019061023d9190611e17565b6106ab565b005b34801561025057600080fd5b506102596106cb565b6040516102669190611e79565b60405180910390f35b34801561027b57600080fd5b506102846106d1565b6040516102919190611e79565b60405180910390f35b3480156102a657600080fd5b506102af6106db565b6040516102bc9190611e79565b60405180910390f35b3480156102d157600080fd5b506102ec60048036038101906102e79190611d22565b6106f2565b6040516102f99190611d90565b60405180910390f35b34801561030e57600080fd5b50610317610704565b6040516103249190611e79565b60405180910390f35b61034760048036038101906103429190611fc9565b61070a565b005b34801561035557600080fd5b50610370600480360381019061036b9190612012565b6108a4565b60405161037d9190611e79565b60405180910390f35b34801561039257600080fd5b5061039b61095e565b6040516103a89190611e79565b60405180910390f35b3480156103bd57600080fd5b506103c6610964565b6040516103d39190611cca565b60405180910390f35b3480156103e857600080fd5b5061040360048036038101906103fe919061206b565b6109f6565b005b34801561041157600080fd5b5061042c6004803603810190610427919061214c565b610a0c565b005b34801561043a57600080fd5b5061045560048036038101906104509190611d22565b610a29565b6040516104629190611cca565b60405180910390f35b34801561047757600080fd5b50610480610a3b565b60405161048d9190611e79565b60405180910390f35b3480156104a257600080fd5b506104bd60048036038101906104b891906121cf565b610a41565b6040516104ca9190611c1f565b60405180910390f35b60006104de82610ad5565b9050919050565b6060600080546104f49061223e565b80601f01602080910402602001604051908101604052809291908181526020018280546105209061223e565b801561056d5780601f106105425761010080835404028352916020019161056d565b820191906000526020600020905b81548152906001019060200180831161055057829003601f168201915b5050505050905090565b600061058282610b36565b5061058c82610bbe565b9050919050565b6105a582826105a0610bfb565b610c03565b5050565b600073ffffffffffffffffffffffffffffffffffffffff168273ffffffffffffffffffffffffffffffffffffffff160361061b5760006040517f64a0ae920000000000000000000000000000000000000000000000000000000081526004016106129190611d90565b60405180910390fd5b600061062f838361062a610bfb565b610c15565b90508373ffffffffffffffffffffffffffffffffffffffff168173ffffffffffffffffffffffffffffffffffffffff16146106a5578382826040517f64283d7b00000000000000000000000000000000000000000000000000000000815260040161069c9392919061226f565b60405180910390fd5b50505050565b6106c683838360405180602001604052806000815250610a0c565b505050565b60095481565b6000600854905090565b6000600a546008546106ed91906122d5565b905090565b60006106fd82610b36565b9050919050565b60075481565b600854600a5410610750576040517f08c379a000000000000000000000000000000000000000000000000000000000815260040161074790612355565b60405180910390fd5b600954600b60003373ffffffffffffffffffffffffffffffffffffffff1673ffffffffffffffffffffffffffffffffffffffff16815260200190815260200160002054106107d3576040517f08c379a00000000000000000000000000000000000000000000000000000000081526004016107ca906123e7565b60405180910390fd5b600754341015610818576040517f08c379a000000000000000000000000000000000000000000000000000000000815260040161080f90612453565b60405180910390fd5b600a600081548092919061082b90612473565b91905055506000600a549050600b60003373ffffffffffffffffffffffffffffffffffffffff1673ffffffffffffffffffffffffffffffffffffffff168152602001908152602001600020600081548092919061088790612473565b91905055506108963382610e2f565b6108a08183610e4d565b5050565b60008073ffffffffffffffffffffffffffffffffffffffff168273ffffffffffffffffffffffffffffffffffffffff16036109175760006040517f89c62b6400000000000000000000000000000000000000000000000000000000815260040161090e9190611d90565b60405180910390fd5b600360008373ffffffffffffffffffffffffffffffffffffffff1673ffffffffffffffffffffffffffffffffffffffff168152602001908152602001600020549050919050565b600a5481565b6060600180546109739061223e565b80601f016020809104026020016040519081016040528092919081815260200182805461099f9061223e565b80156109ec5780601f106109c1576101008083540402835291602001916109ec565b820191906000526020600020905b8154815290600101906020018083116109cf57829003601f168201915b5050505050905090565b610a08610a01610bfb565b8383610ea9565b5050565b610a178484846105a9565b610a2384848484611018565b50505050565b6060610a34826111cf565b9050919050565b60085481565b6000600560008473ffffffffffffffffffffffffffffffffffffffff1673ffffffffffffffffffffffffffffffffffffffff16815260200190815260200160002060008373ffffffffffffffffffffffffffffffffffffffff1673ffffffffffffffffffffffffffffffffffffffff16815260200190815260200160002060009054906101000a900460ff16905092915050565b6000634906490660e01b7bffffffffffffffffffffffffffffffffffffffffffffffffffffffff1916827bffffffffffffffffffffffffffffffffffffffffffffffffffffffff19161480610b2f5750610b2e826112e2565b5b9050919050565b600080610b42836113c4565b9050600073ffffffffffffffffffffffffffffffffffffffff168173ffffffffffffffffffffffffffffffffffffffff1603610bb557826040517f7e273289000000000000000000000000000000000000000000000000000000008152600401610bac9190611e79565b60405180910390fd5b80915050919050565b60006004600083815260200190815260200160002060009054906101000a900473ffffffffffffffffffffffffffffffffffffffff169050919050565b600033905090565b610c108383836001611401565b505050565b600080610c21846113c4565b9050600073ffffffffffffffffffffffffffffffffffffffff168373ffffffffffffffffffffffffffffffffffffffff1614610c6357610c628184866115c6565b5b600073ffffffffffffffffffffffffffffffffffffffff168173ffffffffffffffffffffffffffffffffffffffff1614610cf457610ca5600085600080611401565b6001600360008373ffffffffffffffffffffffffffffffffffffffff1673ffffffffffffffffffffffffffffffffffffffff168152602001908152602001600020600082825403925050819055505b600073ffffffffffffffffffffffffffffffffffffffff168573ffffffffffffffffffffffffffffffffffffffff1614610d77576001600360008773ffffffffffffffffffffffffffffffffffffffff1673ffffffffffffffffffffffffffffffffffffffff168152602001908152602001600020600082825401925050819055505b846002600086815260200190815260200160002060006101000a81548173ffffffffffffffffffffffffffffffffffffffff021916908373ffffffffffffffffffffffffffffffffffffffff160217905550838573ffffffffffffffffffffffffffffffffffffffff168273ffffffffffffffffffffffffffffffffffffffff167fddf252ad1be2c89b69c2b068fc378daa952ba7f163c4a11628f55a4df523b3ef60405160405180910390a4809150509392505050565b610e4982826040518060200160405280600081525061168a565b5050565b80600660008481526020019081526020016000209081610e6d9190612667565b507ff8e1a15aba9398e019f0b49df1a4fde98ee17ae345cb5f6b5e2c27f5033e8ce782604051610e9d9190611e79565b60405180910390a15050565b600073ffffffffffffffffffffffffffffffffffffffff168273ffffffffffffffffffffffffffffffffffffffff1603610f1a57816040517f5b08ba18000000000000000000000000000000000000000000000000000000008152600401610f119190611d90565b60405180910390fd5b80600560008573ffffffffffffffffffffffffffffffffffffffff1673ffffffffffffffffffffffffffffffffffffffff16815260200190815260200160002060008473ffffffffffffffffffffffffffffffffffffffff1673ffffffffffffffffffffffffffffffffffffffff16815260200190815260200160002060006101000a81548160ff0219169083151502179055508173ffffffffffffffffffffffffffffffffffffffff168373ffffffffffffffffffffffffffffffffffffffff167f17307eab39ab6107e8899845ad3d59bd9653f200f220920489ca2b5937696c318360405161100b9190611c1f565b60405180910390a3505050565b60008373ffffffffffffffffffffffffffffffffffffffff163b11156111c9578273ffffffffffffffffffffffffffffffffffffffff1663150b7a0261105c610bfb565b8685856040518563ffffffff1660e01b815260040161107e949392919061278e565b6020604051808303816000875af19250505080156110ba57506040513d601f19601f820116820180604052508101906110b791906127ef565b60015b61113e573d80600081146110ea576040519150601f19603f3d011682016040523d82523d6000602084013e6110ef565b606091505b50600081510361113657836040517f64a0ae9200000000000000000000000000000000000000000000000000000000815260040161112d9190611d90565b60405180910390fd5b805181602001fd5b63150b7a0260e01b7bffffffffffffffffffffffffffffffffffffffffffffffffffffffff1916817bffffffffffffffffffffffffffffffffffffffffffffffffffffffff1916146111c757836040517f64a0ae920000000000000000000000000000000000000000000000000000000081526004016111be9190611d90565b60405180910390fd5b505b50505050565b60606111da82610b36565b5060006006600084815260200190815260200160002080546111fb9061223e565b80601f01602080910402602001604051908101604052809291908181526020018280546112279061223e565b80156112745780601f1061124957610100808354040283529160200191611274565b820191906000526020600020905b81548152906001019060200180831161125757829003601f168201915b5050505050905060006112856116a6565b9050600081510361129a5781925050506112dd565b6000825111156112cf5780826040516020016112b7929190612858565b604051602081830303815290604052925050506112dd565b6112d8846116bd565b925050505b919050565b60007f80ac58cd000000000000000000000000000000000000000000000000000000007bffffffffffffffffffffffffffffffffffffffffffffffffffffffff1916827bffffffffffffffffffffffffffffffffffffffffffffffffffffffff191614806113ad57507f5b5e139f000000000000000000000000000000000000000000000000000000007bffffffffffffffffffffffffffffffffffffffffffffffffffffffff1916827bffffffffffffffffffffffffffffffffffffffffffffffffffffffff1916145b806113bd57506113bc82611726565b5b9050919050565b60006002600083815260200190815260200160002060009054906101000a900473ffffffffffffffffffffffffffffffffffffffff169050919050565b808061143a5750600073ffffffffffffffffffffffffffffffffffffffff168273ffffffffffffffffffffffffffffffffffffffff1614155b1561156e57600061144a84610b36565b9050600073ffffffffffffffffffffffffffffffffffffffff168373ffffffffffffffffffffffffffffffffffffffff16141580156114b557508273ffffffffffffffffffffffffffffffffffffffff168173ffffffffffffffffffffffffffffffffffffffff1614155b80156114c857506114c68184610a41565b155b1561150a57826040517fa9fbf51f0000000000000000000000000000000000000000000000000000000081526004016115019190611d90565b60405180910390fd5b811561156c57838573ffffffffffffffffffffffffffffffffffffffff168273ffffffffffffffffffffffffffffffffffffffff167f8c5be1e5ebec7d5bd14f71427d1e84f3dd0314c0f7b2291e5b200ac8c7c3b92560405160405180910390a45b505b836004600085815260200190815260200160002060006101000a81548173ffffffffffffffffffffffffffffffffffffffff021916908373ffffffffffffffffffffffffffffffffffffffff16021790555050505050565b6115d1838383611790565b61168557600073ffffffffffffffffffffffffffffffffffffffff168373ffffffffffffffffffffffffffffffffffffffff160361164657806040517f7e27328900000000000000000000000000000000000000000000000000000000815260040161163d9190611e79565b60405180910390fd5b81816040517f177e802f00000000000000000000000000000000000000000000000000000000815260040161167c92919061287c565b60405180910390fd5b505050565b6116948383611851565b6116a16000848484611018565b505050565b606060405180602001604052806000815250905090565b60606116c882610b36565b5060006116d36116a6565b905060008151116116f3576040518060200160405280600081525061171e565b806116fd8461194a565b60405160200161170e929190612858565b6040516020818303038152906040525b915050919050565b60007f01ffc9a7000000000000000000000000000000000000000000000000000000007bffffffffffffffffffffffffffffffffffffffffffffffffffffffff1916827bffffffffffffffffffffffffffffffffffffffffffffffffffffffff1916149050919050565b60008073ffffffffffffffffffffffffffffffffffffffff168373ffffffffffffffffffffffffffffffffffffffff161415801561184857508273ffffffffffffffffffffffffffffffffffffffff168473ffffffffffffffffffffffffffffffffffffffff16148061180957506118088484610a41565b5b8061184757508273ffffffffffffffffffffffffffffffffffffffff1661182f83610bbe565b73ffffffffffffffffffffffffffffffffffffffff16145b5b90509392505050565b600073ffffffffffffffffffffffffffffffffffffffff168273ffffffffffffffffffffffffffffffffffffffff16036118c35760006040517f64a0ae920000000000000000000000000000000000000000000000000000000081526004016118ba9190611d90565b60405180910390fd5b60006118d183836000610c15565b9050600073ffffffffffffffffffffffffffffffffffffffff168173ffffffffffffffffffffffffffffffffffffffff16146119455760006040517f73c6ac6e00000000000000000000000000000000000000000000000000000000815260040161193c9190611d90565b60405180910390fd5b505050565b60606000600161195984611a18565b01905060008167ffffffffffffffff81111561197857611977611e9e565b5b6040519080825280601f01601f1916602001820160405280156119aa5781602001600182028036833780820191505090505b509050600082602001820190505b600115611a0d578080600190039150507f3031323334353637383961626364656600000000000000000000000000000000600a86061a8153600a8581611a0157611a006128a5565b5b049450600085036119b8575b819350505050919050565b600080600090507a184f03e93ff9f4daa797ed6e38ed64bf6a1f0100000000000000008310611a76577a184f03e93ff9f4daa797ed6e38ed64bf6a1f0100000000000000008381611a6c57611a6b6128a5565b5b0492506040810190505b6d04ee2d6d415b85acef81000000008310611ab3576d04ee2d6d415b85acef81000000008381611aa957611aa86128a5565b5b0492506020810190505b662386f26fc100008310611ae257662386f26fc100008381611ad857611ad76128a5565b5b0492506010810190505b6305f5e1008310611b0b576305f5e1008381611b0157611b006128a5565b5b0492506008810190505b6127108310611b30576127108381611b2657611b256128a5565b5b0492506004810190505b60648310611b535760648381611b4957611b486128a5565b5b0492506002810190505b600a8310611b62576001810190505b80915050919050565b6000604051905090565b600080fd5b600080fd5b60007fffffffff0000000000000000000000000000000000000000000000000000000082169050919050565b611bb481611b7f565b8114611bbf57600080fd5b50565b600081359050611bd181611bab565b92915050565b600060208284031215611bed57611bec611b75565b5b6000611bfb84828501611bc2565b91505092915050565b60008115159050919050565b611c1981611c04565b82525050565b6000602082019050611c346000830184611c10565b92915050565b600081519050919050565b600082825260208201905092915050565b60005b83811015611c74578082015181840152602081019050611c59565b60008484015250505050565b6000601f19601f8301169050919050565b6000611c9c82611c3a565b611ca68185611c45565b9350611cb6818560208601611c56565b611cbf81611c80565b840191505092915050565b60006020820190508181036000830152611ce48184611c91565b905092915050565b6000819050919050565b611cff81611cec565b8114611d0a57600080fd5b50565b600081359050611d1c81611cf6565b92915050565b600060208284031215611d3857611d37611b75565b5b6000611d4684828501611d0d565b91505092915050565b600073ffffffffffffffffffffffffffffffffffffffff82169050919050565b6000611d7a82611d4f565b9050919050565b611d8a81611d6f565b82525050565b6000602082019050611da56000830184611d81565b92915050565b611db481611d6f565b8114611dbf57600080fd5b50565b600081359050611dd181611dab565b92915050565b60008060408385031215611dee57611ded611b75565b5b6000611dfc85828601611dc2565b9250506020611e0d85828601611d0d565b9150509250929050565b600080600060608486031215611e3057611e2f611b75565b5b6000611e3e86828701611dc2565b9350506020611e4f86828701611dc2565b9250506040611e6086828701611d0d565b9150509250925092565b611e7381611cec565b82525050565b6000602082019050611e8e6000830184611e6a565b92915050565b600080fd5b600080fd5b7f4e487b7100000000000000000000000000000000000000000000000000000000600052604160045260246000fd5b611ed682611c80565b810181811067ffffffffffffffff82111715611ef557611ef4611e9e565b5b80604052505050565b6000611f08611b6b565b9050611f148282611ecd565b919050565b600067ffffffffffffffff821115611f3457611f33611e9e565b5b611f3d82611c80565b9050602081019050919050565b82818337600083830152505050565b6000611f6c611f6784611f19565b611efe565b905082815260208101848484011115611f8857611f87611e99565b5b611f93848285611f4a565b509392505050565b600082601f830112611fb057611faf611e94565b5b8135611fc0848260208601611f59565b91505092915050565b600060208284031215611fdf57611fde611b75565b5b600082013567ffffffffffffffff811115611ffd57611ffc611b7a565b5b61200984828501611f9b565b91505092915050565b60006020828403121561202857612027611b75565b5b600061203684828501611dc2565b91505092915050565b61204881611c04565b811461205357600080fd5b50565b6000813590506120658161203f565b92915050565b6000806040838503121561208257612081611b75565b5b600061209085828601611dc2565b92505060206120a185828601612056565b9150509250929050565b600067ffffffffffffffff8211156120c6576120c5611e9e565b5b6120cf82611c80565b9050602081019050919050565b60006120ef6120ea846120ab565b611efe565b90508281526020810184848401111561210b5761210a611e99565b5b612116848285611f4a565b509392505050565b600082601f83011261213357612132611e94565b5b81356121438482602086016120dc565b91505092915050565b6000806000806080858703121561216657612165611b75565b5b600061217487828801611dc2565b945050602061218587828801611dc2565b935050604061219687828801611d0d565b925050606085013567ffffffffffffffff8111156121b7576121b6611b7a565b5b6121c38782880161211e565b91505092959194509250565b600080604083850312156121e6576121e5611b75565b5b60006121f485828601611dc2565b925050602061220585828601611dc2565b9150509250929050565b7f4e487b7100000000000000000000000000000000000000000000000000000000600052602260045260246000fd5b6000600282049050600182168061225657607f821691505b6020821081036122695761226861220f565b5b50919050565b60006060820190506122846000830186611d81565b6122916020830185611e6a565b61229e6040830184611d81565b949350505050565b7f4e487b7100000000000000000000000000000000000000000000000000000000600052601160045260246000fd5b60006122e082611cec565b91506122eb83611cec565b9250828203905081811115612303576123026122a6565b5b92915050565b7f576520617265206f7574206f66204e4654277300000000000000000000000000600082015250565b600061233f601383611c45565b915061234a82612309565b602082019050919050565b6000602082019050818103600083015261236e81612332565b9050919050565b7f45786365656420746865206d617820616d6f756e74206f66204e46542070657260008201527f2077616c6c657400000000000000000000000000000000000000000000000000602082015250565b60006123d1602783611c45565b91506123dc82612375565b604082019050919050565b60006020820190508181036000830152612400816123c4565b9050919050565b7f496e737566666963656e7420616d6f756e74206f662065746865720000000000600082015250565b600061243d601b83611c45565b915061244882612407565b602082019050919050565b6000602082019050818103600083015261246c81612430565b9050919050565b600061247e82611cec565b91507fffffffffffffffffffffffffffffffffffffffffffffffffffffffffffffffff82036124b0576124af6122a6565b5b600182019050919050565b60008190508160005260206000209050919050565b60006020601f8301049050919050565b600082821b905092915050565b60006008830261251d7fffffffffffffffffffffffffffffffffffffffffffffffffffffffffffffffff826124e0565b61252786836124e0565b95508019841693508086168417925050509392505050565b6000819050919050565b600061256461255f61255a84611cec565b61253f565b611cec565b9050919050565b6000819050919050565b61257e83612549565b61259261258a8261256b565b8484546124ed565b825550505050565b600090565b6125a761259a565b6125b2818484612575565b505050565b5b818110156125d6576125cb60008261259f565b6001810190506125b8565b5050565b601f82111561261b576125ec816124bb565b6125f5846124d0565b81016020851015612604578190505b612618612610856124d0565b8301826125b7565b50505b505050565b600082821c905092915050565b600061263e60001984600802612620565b1980831691505092915050565b6000612657838361262d565b9150826002028217905092915050565b61267082611c3a565b67ffffffffffffffff81111561268957612688611e9e565b5b612693825461223e565b61269e8282856125da565b600060209050601f8311600181146126d157600084156126bf578287015190505b6126c9858261264b565b865550612731565b601f1984166126df866124bb565b60005b82811015612707578489015182556001820191506020850194506020810190506126e2565b868310156127245784890151612720601f89168261262d565b8355505b6001600288020188555050505b505050505050565b600081519050919050565b600082825260208201905092915050565b600061276082612739565b61276a8185612744565b935061277a818560208601611c56565b61278381611c80565b840191505092915050565b60006080820190506127a36000830187611d81565b6127b06020830186611d81565b6127bd6040830185611e6a565b81810360608301526127cf8184612755565b905095945050505050565b6000815190506127e981611bab565b92915050565b60006020828403121561280557612804611b75565b5b6000612813848285016127da565b91505092915050565b600081905092915050565b600061283282611c3a565b61283c818561281c565b935061284c818560208601611c56565b80840191505092915050565b60006128648285612827565b91506128708284612827565b91508190509392505050565b60006040820190506128916000830185611d81565b61289e6020830184611e6a565b9392505050565b7f4e487b7100000000000000000000000000000000000000000000000000000000600052601260045260246000fdfea2646970667358221220778c2b667b3c788fe1c5372c01f6dd3a44ae0001aff3770366e6072f4723dd7564736f6c63430008140033",
  "linkReferences": {},
  "deployedLinkReferences": {}
}